001REMESSA01COBRANCA       000007632999999901038206UNIMED RECIFE COOP. T MEDICO  AV LINS PETIT 140                                           BOA VISTA           50070230RECIFE         PE(81)3413-8085                 cadastro@unimedrecife.com.br  409Unibanco - Unic1911201010111400309/2010Musashi Do Brasil Ltda - Safira                                                                           000001
020210963007000162                                                                                                                                                                                                         Musashi Do Brasil Ltda - Safira         R MOTOGEAR                                                                           CRUZ DE REBOLSA     53610970IGARASSU       PE     000002
04Abmael Nunes Ferreira                2230002531008                       00000000002531                                                                                                                                                                                                                                                                                                                 000003
07280920102230002531016Helem Kaliny Da Silva          Aline Anacleto Silva Bezerra         10101012-Em consultorio (no horario n0010000000000840                                                                                                                                                                                                                                                          000004
0900000000008400000                                                                                                                                                                                                                                                                                                                                                                                       000005
04Abraao Franca Medeiros               2230002728006                       00000000002728                                                                                                                                                                                                                                                                                                                 000006
07220920102230002728308Ana Theresa Dornelas Medeiros  Gabriela De Medeiros Lins            10101012-Em consultorio (no horario n0010000000000840                                                                                                                                                                                                                                                          000007
07060920102230002728014Glaucia Dornelas De Oliveira MeMaria Do Perpetuo Socorro Costa De So10101012-Em consultorio (no horario n0010000000000840                                                                                                                                                                                                                                                          000008
0900000000016800000                                                                                                                                                                                                                                                                                                                                                                                       000009
04Adaias Francisca Da Silva            2230002686001                       00000000002686                                                                                                                                                                                                                                                                                                                 000010
07090920102230002686001Adaias Francisca Da Silva      Instituto De Fisioterapia Duarte Coel20103484-Patologia osteomioarticular 0100000000001680                                                                                                                                                                                                                                                          000011
0900000000016800000                                                                                                                                                                                                                                                                                                                                                                                       000012
04Adailton Simoes De Lima              2230001961009                       00000000001961                                                                                                                                                                                                                                                                                                                 000013
07160920102230001961009Adailton Simoes De Lima        Ana Paula De Andrade Lima            10101012-Em consultorio (no horario n0010000000000840                                                                                                                                                                                                                                                          000014
07170920102230001961017Selomite Mendes De Lima        Caio Da Fonte Baltar Filho           10101012-Em consultorio (no horario n0010000000000840                                                                                                                                                                                                                                                          000015
0900000000016800000                                                                                                                                                                                                                                                                                                                                                                                       000016
04Adalberto Bandeira H Cavalcanti      2230001667003                       00000000001667                                                                                                                                                                                                                                                                                                                 000017
07070920102230001667003Adalberto Bandeira H CavalcantiUnicordis Urg Cardiologicas          10101039-Em pronto socorro  /        0010000000000660                                                                                                                                                                                                                                                          000018
07200920102230001667003Adalberto Bandeira H CavalcantiArnobio Angelo De Mariz Junior       40101010-ECG Convencional de 12 deriv0010000000000360                                                                                                                                                                                                                                                          000019
07200920102230001667003Adalberto Bandeira H CavalcantiArnobio Angelo De Mariz Junior       10101012-Em consultorio (no horario n0010000000000840                                                                                                                                                                                                                                                          000020
07010920102230001667020Julieta Maria Da Silva         Edmar Victor Ltda                    40302318-Potassio  /                 0010000000000084                                                                                                                                                                                                                                                          000021
07010920102230001667020Julieta Maria Da Silva         Edmar Victor Ltda                    40301583-Colesterol (HDL)  /         0010000000000180                                                                                                                                                                                                                                                          000022
07010920102230001667020Julieta Maria Da Silva         Edmar Victor Ltda                    40301931-Fosforo  /                  0010000000000084                                                                                                                                                                                                                                                          000023
07010920102230001667020Julieta Maria Da Silva         Edmar Victor Ltda                    40302407-Reserva alcalina (bicarbonat0010000000000084                                                                                                                                                                                                                                                          000024
07010920102230001667020Julieta Maria Da Silva         Edmar Victor Ltda                    40302512-Transaminase piruvica (amino0010000000000084                                                                                                                                                                                                                                                          000025
07010920102230001667020Julieta Maria Da Silva         Edmar Victor Ltda                    40302423-Sodio  /                    0010000000000084                                                                                                                                                                                                                                                          000026
07010920102230001667020Julieta Maria Da Silva         Edmar Victor Ltda                    40302580-Ureia  /                    0010000000000084                                                                                                                                                                                                                                                          000027
07010920102230001667020Julieta Maria Da Silva         Edmar Victor Ltda                    40307654-Proteína C. teste imunológic0010000000000402                                                                                                                                                                                                                                                          000028
07010920102230001667020Julieta Maria Da Silva         Edmar Victor Ltda                    40301400-Calcio  /                   0010000000000084                                                                                                                                                                                                                                                          000029
07010920102230001667020Julieta Maria Da Silva         Edmar Victor Ltda                    40302547-Triglicerideos  /           0010000000000120                                                                                                                                                                                                                                                          000030
07010920102230001667020Julieta Maria Da Silva         Edmar Victor Ltda                    40304345-Hemoglobina. dosagem  /     0010000000000060                                                                                                                                                                                                                                                          000031
07010920102230001667020Julieta Maria Da Silva         Edmar Victor Ltda                    40307174-HIV1 ou HIV2. pesquisa de an0010000000000900                                                                                                                                                                                                                                                          000032
07010920102230001667020Julieta Maria Da Silva         Edmar Victor Ltda                    40304337-Hematocrito. determinacao do0010000000000060                                                                                                                                                                                                                                                          000033
07010920102230001667020Julieta Maria Da Silva         Edmar Victor Ltda                    40301605-Colesterol total  /         0010000000000084                                                                                                                                                                                                                                                          000034
0900000000042540000                                                                                                                                                                                                                                                                                                                                                                                       000035
04Adalberto Rodrigues Lins Filho       2230002813003                       00000000002813                                                                                                                                                                                                                                                                                                                 000036
07210920102230002813003Adalberto Rodrigues Lins Filho Urgencia Olinda Unimed Recife        40803112-Punho  /                    0010000000000354                                                                                                                                                                                                                                                          000037
07210920102230002813003Adalberto Rodrigues Lins Filho Urgencia Olinda Unimed Recife        10101039-Em pronto socorro  /        0010000000000660                                                                                                                                                                                                                                                          000038
07210920102230002813003Adalberto Rodrigues Lins Filho Urgencia Olinda Unimed Recife        1-FILME                              0010000000000067                                                                                                                                                                                                                                                          000039
0900000000010810000                                                                                                                                                                                                                                                                                                                                                                                       000040
04Adeildo Izidoro Costa                2230001685001                       00000000001685                                                                                                                                                                                                                                                                                                                 000041
07110920102230001685117Adeilson Do Nascimento Costa   Urgencia Olinda Unimed Recife        10101039-Em pronto socorro  /        0010000000000660                                                                                                                                                                                                                                                          000042
07110920102230001685117Adeilson Do Nascimento Costa   Hospital Unimed Recife I I- Pça Migue10101039-Em pronto socorro  /        0010000000000660                                                                                                                                                                                                                                                          000043
07230920102230001685117Adeilson Do Nascimento Costa   Urgencia Olinda Unimed Recife        10101039-Em pronto socorro  /        0010000000000660                                                                                                                                                                                                                                                          000044
07010920102230001685010Maria Severina Do Nascimento CoMaria Do Perpetuo Socorro Costa De So10101012-Em consultorio (no horario n0010000000000840                                                                                                                                                                                                                                                          000045
07200920102230001685010Maria Severina Do Nascimento CoAna Paula De Andrade Lima            10101012-Em consultorio (no horario n0010000000000840                                                                                                                                                                                                                                                          000046
0900000000036600000                                                                                                                                                                                                                                                                                                                                                                                       000047
04Adeilton Andrade Do Nascimento       2230002681000                       00000000002681                                                                                                                                                                                                                                                                                                                 000048
07020920102230002681018Maria Gomes Silva Do NascimentoCentro Médico E Fraturas Ltda        20103484-Patologia osteomioarticular 0100000000001680                                                                                                                                                                                                                                                          000049
0900000000016800000                                                                                                                                                                                                                                                                                                                                                                                       000050
04Aderivaldo Antonio Dos Santos        2230003320000                       00000000003320                                                                                                                                                                                                                                                                                                                 000051
07080920102230003320000Aderivaldo Antonio Dos Santos  Hore-Hospital De Olhos Do Recife     10101039-Em pronto socorro  /        0010000000000660                                                                                                                                                                                                                                                          000052
07160920102230003320019Erika Tatianae B. Santos       Tarcisio Albuquerque De Aguiar       10101012-Em consultorio (no horario n0010000000000840                                                                                                                                                                                                                                                          000053
07160920102230003320019Erika Tatianae B. Santos       Adelma Maria Gomes De Aguiar         10101012-Em consultorio (no horario n0010000000000840                                                                                                                                                                                                                                                          000054
07240920102230003320019Erika Tatianae B. Santos       Nkb Rio S/A                          40310213-Cultura. urina com contagem 0010000000000300                                                                                                                                                                                                                                                          000055
07240920102230003320019Erika Tatianae B. Santos       Centro De Diagnostico Boris Berenstei40901300-Transvaginal (inclui abdome 0010000000001200                                                                                                                                                                                                                                                          000056
07240920102230003320019Erika Tatianae B. Santos       Centro De Diagnostico Boris Berenstei1-FILME                              0010000000000074                                                                                                                                                                                                                                                          000057
0900000000039140000                                                                                                                                                                                                                                                                                                                                                                                       000058
04Adilson Ferreira Barbosa             2230002562000                       00000000002562                                                                                                                                                                                                                                                                                                                 000059
07240920102230002562000Adilson Ferreira Barbosa       Antonio Mario De M Valente           10101012-Em consultorio (no horario n0010000000000840                                                                                                                                                                                                                                                          000060
0900000000008400000                                                                                                                                                                                                                                                                                                                                                                                       000061
04Admilson Gomes Da Silva              2230001641004                       00000000001641                                                                                                                                                                                                                                                                                                                 000062
07270920102230001641004Admilson Gomes Da Silva        Lab Diva Montenegro Melo Ltda (Lapac)40304361-Hemograma com contagem de pl0010000000000180                                                                                                                                                                                                                                                          000063
07270920102230001641004Admilson Gomes Da Silva        Lab Diva Montenegro Melo Ltda (Lapac)40302040-Glicose  /                  0010000000000084                                                                                                                                                                                                                                                          000064
07270920102230001641004Admilson Gomes Da Silva        Lab Diva Montenegro Melo Ltda (Lapac)40301605-Colesterol total  /         0010000000000084                                                                                                                                                                                                                                                          000065
07270920102230001641004Admilson Gomes Da Silva        Lab Diva Montenegro Melo Ltda (Lapac)40316149-Antigeno especifico prostati0010000000000900                                                                                                                                                                                                                                                          000066
07130920102230001641020Severina Maria Da Silva        Lab Diva Montenegro Melo Ltda (Lapac)40304361-Hemograma com contagem de pl0010000000000180                                                                                                                                                                                                                                                          000067
07130920102230001641020Severina Maria Da Silva        Lab Diva Montenegro Melo Ltda (Lapac)40302504-Transaminase oxalacetica (am0010000000000084                                                                                                                                                                                                                                                          000068
07130920102230001641020Severina Maria Da Silva        Lab Diva Montenegro Melo Ltda (Lapac)40301605-Colesterol total  /         0010000000000084                                                                                                                                                                                                                                                          000069
07130920102230001641020Severina Maria Da Silva        Lab Diva Montenegro Melo Ltda (Lapac)40301150-Acido urico  /              0010000000000084                                                                                                                                                                                                                                                          000070
07130920102230001641020Severina Maria Da Silva        Lab Diva Montenegro Melo Ltda (Lapac)40301583-Colesterol (HDL)  /         0010000000000180                                                                                                                                                                                                                                                          000071
07130920102230001641020Severina Maria Da Silva        Lab Diva Montenegro Melo Ltda (Lapac)40302547-Triglicerideos  /           0010000000000120                                                                                                                                                                                                                                                          000072
07130920102230001641020Severina Maria Da Silva        Lab Diva Montenegro Melo Ltda (Lapac)40302512-Transaminase piruvica (amino0010000000000084                                                                                                                                                                                                                                                          000073
07130920102230001641020Severina Maria Da Silva        Lab Diva Montenegro Melo Ltda (Lapac)40301630-Creatinina  /               0010000000000084                                                                                                                                                                                                                                                          000074
07130920102230001641020Severina Maria Da Silva        Lab Diva Montenegro Melo Ltda (Lapac)40302040-Glicose  /                  0010000000000084                                                                                                                                                                                                                                                          000075
0900000000022320000                                                                                                                                                                                                                                                                                                                                                                                       000076
04Adriano Bruno Cavalcanti Da Silva    2230002086004                       00000000002086                                                                                                                                                                                                                                                                                                                 000077
07200920102230002086004Adriano Bruno Cavalcanti Da SilHore-Hospital De Olhos Do Recife     50010255-Fundoscopia Sob Medriases Bi0010000000000180                                                                                                                                                                                                                                                          000078
07200920102230002086004Adriano Bruno Cavalcanti Da SilHore-Hospital De Olhos Do Recife     41301323-Tonometria - binocular  /   0010000000000150                                                                                                                                                                                                                                                          000079
07200920102230002086004Adriano Bruno Cavalcanti Da SilHore-Hospital De Olhos Do Recife     10101039-Em pronto socorro  /        0010000000000660                                                                                                                                                                                                                                                          000080
07010920102230002086020Wanalúcia M. Santana           Maria Da Assuncao Lima Dos Santos    10101012-Em consultorio (no horario n0010000000000840                                                                                                                                                                                                                                                          000081
0900000000018300000                                                                                                                                                                                                                                                                                                                                                                                       000082
04Adriano José Da Silva                2230003441002                       00000000003441                                                                                                                                                                                                                                                                                                                 000083
07280920102230003441118Adriano Jose Da Silva Junior   Clemente Jose De Freitas Baracho     10101012-Em consultorio (no horario n0010000000000840                                                                                                                                                                                                                                                          000084
07280920102230003441100Anderson Jose Da Silva         Clemente Jose De Freitas Baracho     10101012-Em consultorio (no horario n0010000000000840                                                                                                                                                                                                                                                          000085
0900000000016800000                                                                                                                                                                                                                                                                                                                                                                                       000086
04Adriano Manoel Da Silva              2230003138008                       00000000003138                                                                                                                                                                                                                                                                                                                 000087
07200920102230003138008Adriano Manoel Da Silva        Urgencia Olinda Unimed Recife        10101039-Em pronto socorro  /        0010000000000660                                                                                                                                                                                                                                                          000088
07230920102230003138008Adriano Manoel Da Silva        Renata Maria Do Rego Barros Rocha    10101012-Em consultorio (no horario n0010000000000840                                                                                                                                                                                                                                                          000089
0900000000015000000                                                                                                                                                                                                                                                                                                                                                                                       000090
04Alberes Das Neves De Lima            2230003163002                       00000000003163                                                                                                                                                                                                                                                                                                                 000091
07220920102230003163304Ana Beatriz Barros De Lim      Gabriela De Medeiros Lins            10101012-Em consultorio (no horario n0010000000000840                                                                                                                                                                                                                                                          000092
0900000000008400000                                                                                                                                                                                                                                                                                                                                                                                       000093
04Alcides Soares Do Monte              2230001013003                       00000000001013                                                                                                                                                                                                                                                                                                                 000094
07270920102230001013003Alcides Soares Do Monte        Instituto Endocrinologia E Medic Nucl40301630-Creatinina  /               0010000000000084                                                                                                                                                                                                                                                          000095
07270920102230001013003Alcides Soares Do Monte        Instituto Endocrinologia E Medic Nucl40301150-Acido urico  /              0010000000000084                                                                                                                                                                                                                                                          000096
07270920102230001013003Alcides Soares Do Monte        Instituto Endocrinologia E Medic Nucl40316130-Antigeno especifico prostati0010000000001242                                                                                                                                                                                                                                                          000097
07270920102230001013003Alcides Soares Do Monte        Instituto Endocrinologia E Medic Nucl40301605-Colesterol total  /         0010000000000084                                                                                                                                                                                                                                                          000098
07270920102230001013003Alcides Soares Do Monte        Instituto Endocrinologia E Medic Nucl40303110-Parasitologico  /           0010000000000120                                                                                                                                                                                                                                                          000099
07270920102230001013003Alcides Soares Do Monte        Instituto Endocrinologia E Medic Nucl40302040-Glicose  /                  0010000000000084                                                                                                                                                                                                                                                          000100
07270920102230001013003Alcides Soares Do Monte        Instituto Endocrinologia E Medic Nucl40304361-Hemograma com contagem de pl0010000000000180                                                                                                                                                                                                                                                          000101
07270920102230001013003Alcides Soares Do Monte        Instituto Endocrinologia E Medic Nucl40311210-Rotina de urina (caracteres 0010000000000120                                                                                                                                                                                                                                                          000102
07270920102230001013003Alcides Soares Do Monte        Instituto Endocrinologia E Medic Nucl40302547-Triglicerideos  /           0010000000000120                                                                                                                                                                                                                                                          000103
07270920102230001013003Alcides Soares Do Monte        Instituto Endocrinologia E Medic Nucl40302580-Ureia  /                    0010000000000084                                                                                                                                                                                                                                                          000104
07150920102230001013313Clarice Soares Do Monte        Hospital Unimed Recife I I- Pça Migue10101039-Em pronto socorro  /        0010000000000660                                                                                                                                                                                                                                                          000105
07010920102230001013011Lauriceia Araujo Do Monte      Maria Eulasia Gallindo Tavora        10101012-Em consultorio (no horario n0010000000000840                                                                                                                                                                                                                                                          000106
07240920102230001013011Lauriceia Araujo Do Monte      Marcos Antonio Cavalcanti Gallindo   10101012-Em consultorio (no horario n0010000000000840                                                                                                                                                                                                                                                          000107
07290920102230001013011Lauriceia Araujo Do Monte      Sandra Ma Araujo De Sta Cruz Oliveira40105075-Prova de funcao pulmonar ven0010000000001680                                                                                                                                                                                                                                                          000108
0900000000062220000                                                                                                                                                                                                                                                                                                                                                                                       000109
04Alcino Soares Pessoa                 2230000637003                       00000000000637                                                                                                                                                                                                                                                                                                                 000110
07160920102230000637020Jaciara Do Nascto. Mendes      Bruno Santos Leiria De Andrade       10101012-Em consultorio (no horario n0010000000000840                                                                                                                                                                                                                                                          000111
0900000000008400000                                                                                                                                                                                                                                                                                                                                                                                       000112
04Alcione Batista Do Nascimento        2230002446000                       00000000002446                                                                                                                                                                                                                                                                                                                 000113
07020920102230002446000Alcione Batista Do Nascimento  Aline Anacleto Silva Bezerra         10101012-Em consultorio (no horario n0010000000000840                                                                                                                                                                                                                                                          000114
07140920102230002446000Alcione Batista Do Nascimento  Isa Krutman Rosenfeld                40601137-Procedimento diagnostico em 0010000000000557                                                                                                                                                                                                                                                          000115
07140920102230002446000Alcione Batista Do Nascimento  Centro De Diagnostico Boris Berenstei40901114-Mamas  /                    0010000000001080                                                                                                                                                                                                                                                          000116
07140920102230002446000Alcione Batista Do Nascimento  Isa Krutman Rosenfeld                41301102-Colposcopia (cervice uterina0010000000000840                                                                                                                                                                                                                                                          000117
07140920102230002446000Alcione Batista Do Nascimento  Centro De Diagnostico Boris Berenstei1-FILME                              0010000000000147                                                                                                                                                                                                                                                          000118
07140920102230002446000Alcione Batista Do Nascimento  Centro De Diagnostico Boris Berenstei40901300-Transvaginal (inclui abdome 0010000000001200                                                                                                                                                                                                                                                          000119
0900000000046640000                                                                                                                                                                                                                                                                                                                                                                                       000120
04Aldir Francisco Da Silva             2230001957001                       00000000001957                                                                                                                                                                                                                                                                                                                 000121
07140920102230001957010Maria De Fatima Dos Santos SilvLab Anal Cli Gilson Cidrim S/C Ltda  40301605-Colesterol total  /         0010000000000084                                                                                                                                                                                                                                                          000122
07140920102230001957010Maria De Fatima Dos Santos SilvLab Anal Cli Gilson Cidrim S/C Ltda  40304361-Hemograma com contagem de pl0010000000000180                                                                                                                                                                                                                                                          000123
07140920102230001957010Maria De Fatima Dos Santos SilvLab Anal Cli Gilson Cidrim S/C Ltda  40302547-Triglicerideos  /           0010000000000120                                                                                                                                                                                                                                                          000124
07140920102230001957010Maria De Fatima Dos Santos SilvLab Anal Cli Gilson Cidrim S/C Ltda  40301583-Colesterol (HDL)  /         0010000000000180                                                                                                                                                                                                                                                          000125
07140920102230001957010Maria De Fatima Dos Santos SilvLab Anal Cli Gilson Cidrim S/C Ltda  40302040-Glicose  /                  0010000000000084                                                                                                                                                                                                                                                          000126
07160920102230001957010Maria De Fatima Dos Santos SilvClinica Lucilo Avila Jr Ltda         40808033-Mamografia convencional bila0010000000000978                                                                                                                                                                                                                                                          000127
07160920102230001957010Maria De Fatima Dos Santos SilvClinica Lucilo Avila Jr Ltda         40901300-Transvaginal (inclui abdome 0010000000001200                                                                                                                                                                                                                                                          000128
07160920102230001957010Maria De Fatima Dos Santos SilvClinica Lucilo Avila Jr Ltda         40901114-Mamas  /                    0010000000001080                                                                                                                                                                                                                                                          000129
07160920102230001957010Maria De Fatima Dos Santos SilvClinica Lucilo Avila Jr Ltda         1-FILME                              0020000000001008                                                                                                                                                                                                                                                          000130
0900000000049140000                                                                                                                                                                                                                                                                                                                                                                                       000131
04Alecio De Alcantara Alves Da Silva   2230003432003                       00000000003432                                                                                                                                                                                                                                                                                                                 000132
07270920102230003432003Alecio De Alcantara Alves Da SiAntonio Luiz F Albuquerque           10101012-Em consultorio (no horario n0010000000000840                                                                                                                                                                                                                                                          000133
07290920102230003432003Alecio De Alcantara Alves Da SiCentro De Diagnostico Boris Berenstei1-FILME                              0010000000000147                                                                                                                                                                                                                                                          000134
07290920102230003432003Alecio De Alcantara Alves Da SiCentro De Diagnostico Boris Berenstei40901220-Articular (por articulacao) 0010000000001080                                                                                                                                                                                                                                                          000135
0900000000020670000                                                                                                                                                                                                                                                                                                                                                                                       000136
04Alex Antonio Do Nascimento           2230002513000                       00000000002513                                                                                                                                                                                                                                                                                                                 000137
07210920102230002513310Beatriz Regina Do Nascimento   Gabriela De Medeiros Lins            10101012-Em consultorio (no horario n0010000000000840                                                                                                                                                                                                                                                          000138
07160920102230002513026Keli Regina De Santana         Bruno Santos Leiria De Andrade       10101012-Em consultorio (no horario n0010000000000840                                                                                                                                                                                                                                                          000139
07230920102230002513026Keli Regina De Santana         Pedro Pires Ferreira Neto            40901238-Obstetrica  /               0010000000000840                                                                                                                                                                                                                                                          000140
0900000000025200000                                                                                                                                                                                                                                                                                                                                                                                       000141
04Alexandre Antonio Do Nascimento Cabra2230003161000                       00000000003161                                                                                                                                                                                                                                                                                                                 000142
07290920102230003161115Cauã Alexandre Antonio Cabral  Edjane Figueredo Burity              10101012-Em consultorio (no horario n0010000000000840                                                                                                                                                                                                                                                          000143
0900000000008400000                                                                                                                                                                                                                                                                                                                                                                                       000144
04Alexandre Bernardino Guimaraes       2230002790003                       00000000002790                                                                                                                                                                                                                                                                                                                 000145
07030920102230002790321Alessandra Pereira Guimaraes   Maria Anunciada Da Silva             10101012-Em consultorio (no horario n0010000000000840                                                                                                                                                                                                                                                          000146
07030920102230002790321Alessandra Pereira Guimaraes   Centro De Diagnostico Boris Berenstei1-FILME                              0010000000000067                                                                                                                                                                                                                                                          000147
07030920102230002790321Alessandra Pereira Guimaraes   Centro De Diagnostico Boris Berenstei40801063-Seios da face  /            0010000000000426                                                                                                                                                                                                                                                          000148
07030920102230002790321Alessandra Pereira Guimaraes   Centro De Diagnostico Boris Berenstei40801128-Adenoides ou cavum  /       0010000000000408                                                                                                                                                                                                                                                          000149
07040920102230002790321Alessandra Pereira Guimaraes   Nkb Rio S/A                          40310124-Cultura bacteriana (em diver0010000000000300                                                                                                                                                                                                                                                          000150
07040920102230002790321Alessandra Pereira Guimaraes   Nkb Rio S/A                          40303110-Parasitologico  /           0030000000000360                                                                                                                                                                                                                                                          000151
07040920102230002790321Alessandra Pereira Guimaraes   Nkb Rio S/A                          40302040-Glicose  /                  0010000000000084                                                                                                                                                                                                                                                          000152
07040920102230002790321Alessandra Pereira Guimaraes   Nkb Rio S/A                          40304361-Hemograma com contagem de pl0010000000000180                                                                                                                                                                                                                                                          000153
07040920102230002790321Alessandra Pereira Guimaraes   Nkb Rio S/A                          40311210-Rotina de urina (caracteres 0010000000000120                                                                                                                                                                                                                                                          000154
07030920102230002790003Alexandre Bernardino Guimaraes Lab Anal Cli Gilson Cidrim S/C Ltda  40304361-Hemograma com contagem de pl0010000000000180                                                                                                                                                                                                                                                          000155
07310820102230002790003Alexandre Bernardino Guimaraes Hospital Memorial Guararapes         10101039-Em pronto socorro  /        0010000000000660                                                                                                                                                                                                                                                          000156
0900000000036250000                                                                                                                                                                                                                                                                                                                                                                                       000157
04Alexandre Do Espirito Santo Cabral   2230003028008                       00000000003028                                                                                                                                                                                                                                                                                                                 000158
07080920102230003028008Alexandre Do Espirito Santo CabRonald Fonseca Cavalcanti            41301013-Angiofluoresceinografia - mo0020000000000720                                                                                                                                                                                                                                                          000159
07080920102230003028008Alexandre Do Espirito Santo CabSandra Dias De Melo Leal             10101012-Em consultorio (no horario n0010000000000840                                                                                                                                                                                                                                                          000160
07080920102230003028008Alexandre Do Espirito Santo CabSandra Dias De Melo Leal             41301323-Tonometria - binocular  /   0010000000000150                                                                                                                                                                                                                                                          000161
07080920102230003028008Alexandre Do Espirito Santo CabRonald Fonseca Cavalcanti            41301315-Retinografia - monocular  / 0020000000000720                                                                                                                                                                                                                                                          000162
07080920102230003028008Alexandre Do Espirito Santo CabHope - Hospital De Olhos De PernambucTX091-Retinografo                    0010000000000594                                                                                                                                                                                                                                                          000163
07080920102230003028008Alexandre Do Espirito Santo CabSandra Dias De Melo Leal             41301250-Mapeamento de retina (oftalm0020000000000960                                                                                                                                                                                                                                                          000164
07080920102230003028008Alexandre Do Espirito Santo CabHope - Hospital De Olhos De PernambucTX288-Retino + angio (Mat/Med)       0010000000002336                                                                                                                                                                                                                                                          000165
0900000000063200000                                                                                                                                                                                                                                                                                                                                                                                       000166
04Alexandre Gomes Da Silva             2230003111002                       00000000003111                                                                                                                                                                                                                                                                                                                 000167
07160920102230003111029Maria Jaciara Da Silva AssunçãoTarcisio Albuquerque De Aguiar       10101012-Em consultorio (no horario n0010000000000840                                                                                                                                                                                                                                                          000168
0900000000008400000                                                                                                                                                                                                                                                                                                                                                                                       000169
04Alexandre José De Lima               2230003451008                       00000000003451                                                                                                                                                                                                                                                                                                                 000170
07060920102230003451008Alexandre José De Lima         Hospital Unimed Recife I I- Pça Migue10101039-Em pronto socorro  /        0010000000000660                                                                                                                                                                                                                                                          000171
07090920102230003451008Alexandre José De Lima         Centro Médico E Fraturas Ltda        20103484-Patologia osteomioarticular 0100000000001680                                                                                                                                                                                                                                                          000172
07270920102230003451008Alexandre José De Lima         Carlos Roberto Pinheiro Rihan        10101012-Em consultorio (no horario n0010000000000840                                                                                                                                                                                                                                                          000173
07200920102230003451016Marlene Cristina Gomes De Lima Centro Médico E Fraturas Ltda        20103492-Patologia osteomioarticular 0100000000003000                                                                                                                                                                                                                                                          000174
0900000000061800000                                                                                                                                                                                                                                                                                                                                                                                       000175
04Alexandre Lira Da Silva              2230002797008                       00000000002797                                                                                                                                                                                                                                                                                                                 000176
07020820102230002797008Alexandre Lira Da Silva        Sos Maos Recife Ltda                 10101039-Em pronto socorro  /        0010000000000660                                                                                                                                                                                                                                                          000177
07130920102230002797008Alexandre Lira Da Silva        Urgencia Olinda Unimed Recife        10101039-Em pronto socorro  /        0010000000000660                                                                                                                                                                                                                                                          000178
07150920102230002797008Alexandre Lira Da Silva        Sos Maos Recife Ltda                 10101039-Em pronto socorro  /        0010000000000660                                                                                                                                                                                                                                                          000179
07280920102230002797008Alexandre Lira Da Silva        Enio Siberio De Melo Ferreira        10101012-Em consultorio (no horario n0010000000000840                                                                                                                                                                                                                                                          000180
0900000000028200000                                                                                                                                                                                                                                                                                                                                                                                       000181
04Alexandre Magno Emmanuel Da Silva    2230002581005                       00000000002581                                                                                                                                                                                                                                                                                                                 000182
07140920102230002581110Alejandro Magno Emmanuel Da SilInstituto Endocrinologia E Medic Nucl40301591-Colesterol (LDL)  /         0010000000000240                                                                                                                                                                                                                                                          000183
07140920102230002581110Alejandro Magno Emmanuel Da SilInstituto Endocrinologia E Medic Nucl40310124-Cultura bacteriana (em diver0010000000000300                                                                                                                                                                                                                                                          000184
07140920102230002581110Alejandro Magno Emmanuel Da SilInstituto Endocrinologia E Medic Nucl40304361-Hemograma com contagem de pl0010000000000180                                                                                                                                                                                                                                                          000185
07140920102230002581110Alejandro Magno Emmanuel Da SilInstituto Endocrinologia E Medic Nucl40302547-Triglicerideos  /           0010000000000120                                                                                                                                                                                                                                                          000186
07140920102230002581110Alejandro Magno Emmanuel Da SilInstituto Endocrinologia E Medic Nucl40301583-Colesterol (HDL)  /         0010000000000180                                                                                                                                                                                                                                                          000187
07140920102230002581110Alejandro Magno Emmanuel Da SilInstituto Endocrinologia E Medic Nucl40316270-Ferritina  /                0010000000000750                                                                                                                                                                                                                                                          000188
07140920102230002581110Alejandro Magno Emmanuel Da SilInstituto Endocrinologia E Medic Nucl40301605-Colesterol total  /         0010000000000084                                                                                                                                                                                                                                                          000189
07140920102230002581110Alejandro Magno Emmanuel Da SilInstituto Endocrinologia E Medic Nucl40311210-Rotina de urina (caracteres 0010000000000120                                                                                                                                                                                                                                                          000190
07140920102230002581110Alejandro Magno Emmanuel Da SilInstituto Endocrinologia E Medic Nucl40302040-Glicose  /                  0010000000000084                                                                                                                                                                                                                                                          000191
07140920102230002581013Elenita Luiza França Da Silva  Clínica De Mama Do Recife            1-FILME                              0010000000000074                                                                                                                                                                                                                                                          000192
07140920102230002581013Elenita Luiza França Da Silva  Alcides Ferreira Dos Santos          10101012-Em consultorio (no horario n0010000000000840                                                                                                                                                                                                                                                          000193
07140920102230002581013Elenita Luiza França Da Silva  Alcides Ferreira Dos Santos          40901114-Mamas  /  RAD.(CUSTO/HON)P/E0010000000001080                                                                                                                                                                                                                                                          000194
07200920102230002581013Elenita Luiza França Da Silva  Lourdes Cariri Chalegre De Almeida   10101012-Em consultorio (no horario n0010000000000840                                                                                                                                                                                                                                                          000195
07250920102230002581013Elenita Luiza França Da Silva  Instituto Endocrinologia E Medic Nucl40301931-Fosforo  /                  0010000000000084                                                                                                                                                                                                                                                          000196
07250920102230002581013Elenita Luiza França Da Silva  Instituto Endocrinologia E Medic Nucl40316246-Estradiol  /                0010000000000600                                                                                                                                                                                                                                                          000197
07250920102230002581013Elenita Luiza França Da Silva  Instituto Endocrinologia E Medic Nucl40302512-Transaminase piruvica (amino0010000000000084                                                                                                                                                                                                                                                          000198
07250920102230002581013Elenita Luiza França Da Silva  Instituto Endocrinologia E Medic Nucl40304361-Hemograma com contagem de pl0010000000000180                                                                                                                                                                                                                                                          000199
07250920102230002581013Elenita Luiza França Da Silva  Instituto Endocrinologia E Medic Nucl40316548-Tiroxina (T4)  /            0010000000000390                                                                                                                                                                                                                                                          000200
07250920102230002581013Elenita Luiza França Da Silva  Instituto Endocrinologia E Medic Nucl40316327-Gonadotrofico corionico. hor0010000000000390                                                                                                                                                                                                                                                          000201
07250920102230002581013Elenita Luiza França Da Silva  Instituto Endocrinologia E Medic Nucl40306224-Anticorpos anti-influenza A.0010000000000300                                                                                                                                                                                                                                                          000202
07250920102230002581013Elenita Luiza França Da Silva  Instituto Endocrinologia E Medic Nucl40316408-Progesterona  /             0010000000000630                                                                                                                                                                                                                                                          000203
07250920102230002581013Elenita Luiza França Da Silva  Instituto Endocrinologia E Medic Nucl40302580-Ureia  /                    0010000000000084                                                                                                                                                                                                                                                          000204
07250920102230002581013Elenita Luiza França Da Silva  Instituto Endocrinologia E Medic Nucl40302504-Transaminase oxalacetica (am0010000000000084                                                                                                                                                                                                                                                          000205
07250920102230002581013Elenita Luiza França Da Silva  Instituto Endocrinologia E Medic Nucl40316289-Foliculo estimulante. hormon0010000000000390                                                                                                                                                                                                                                                          000206
07250920102230002581013Elenita Luiza França Da Silva  Instituto Endocrinologia E Medic Nucl40302547-Triglicerideos  /           0010000000000120                                                                                                                                                                                                                                                          000207
07250920102230002581013Elenita Luiza França Da Silva  Instituto Endocrinologia E Medic Nucl40316556-Triiodotironina (T3)  /     0010000000000390                                                                                                                                                                                                                                                          000208
07250920102230002581013Elenita Luiza França Da Silva  Instituto Endocrinologia E Medic Nucl40307220-IgA  /                      0010000000000300                                                                                                                                                                                                                                                          000209
07250920102230002581013Elenita Luiza França Da Silva  Instituto Endocrinologia E Medic Nucl40316521-Tireoestimulante Hormonio TS0010000000000510                                                                                                                                                                                                                                                          000210
07250920102230002581013Elenita Luiza França Da Silva  Instituto Endocrinologia E Medic Nucl40302040-Glicose  /                  0010000000000084                                                                                                                                                                                                                                                          000211
07250920102230002581013Elenita Luiza França Da Silva  Instituto Endocrinologia E Medic Nucl40306950-Hepatite B - HBCAC - IgG (an0010000000000600                                                                                                                                                                                                                                                          000212
07250920102230002581013Elenita Luiza França Da Silva  Instituto Endocrinologia E Medic Nucl40301583-Colesterol (HDL)  /         0010000000000180                                                                                                                                                                                                                                                          000213
07250920102230002581013Elenita Luiza França Da Silva  Instituto Endocrinologia E Medic Nucl40316335-Hormonio luteinizante (LH)  0010000000000378                                                                                                                                                                                                                                                          000214
07250920102230002581013Elenita Luiza França Da Silva  Instituto Endocrinologia E Medic Nucl40311210-Rotina de urina (caracteres 0010000000000120                                                                                                                                                                                                                                                          000215
07250920102230002581013Elenita Luiza França Da Silva  Instituto Endocrinologia E Medic Nucl40301397-Bilirrubinas total direta e 0010000000000090                                                                                                                                                                                                                                                          000216
07250920102230002581013Elenita Luiza França Da Silva  Instituto Endocrinologia E Medic Nucl40306992-Hepatite B - HBSAC (anti-ant0010000000000480                                                                                                                                                                                                                                                          000217
07250920102230002581013Elenita Luiza França Da Silva  Instituto Endocrinologia E Medic Nucl40301150-Acido urico  /              0010000000000084                                                                                                                                                                                                                                                          000218
07250920102230002581013Elenita Luiza França Da Silva  Instituto Endocrinologia E Medic Nucl40301885-Fosfatase alcalina  /       0010000000000108                                                                                                                                                                                                                                                          000219
07250920102230002581013Elenita Luiza França Da Silva  Instituto Endocrinologia E Medic Nucl40316416-Prolactina  /               0010000000000510                                                                                                                                                                                                                                                          000220
07250920102230002581013Elenita Luiza França Da Silva  Instituto Endocrinologia E Medic Nucl40310213-Cultura. urina com contagem 0010000000000300                                                                                                                                                                                                                                                          000221
07250920102230002581013Elenita Luiza França Da Silva  Instituto Endocrinologia E Medic Nucl40301630-Creatinina  /               0010000000000084                                                                                                                                                                                                                                                          000222
07250920102230002581013Elenita Luiza França Da Silva  Instituto Endocrinologia E Medic Nucl40301648-Creatino fosfoquinase  /    0010000000000300                                                                                                                                                                                                                                                          000223
07250920102230002581013Elenita Luiza França Da Silva  Instituto Endocrinologia E Medic Nucl40301591-Colesterol (LDL)  /         0010000000000240                                                                                                                                                                                                                                                          000224
07250920102230002581013Elenita Luiza França Da Silva  Instituto Endocrinologia E Medic Nucl40316513-Testosterona total  /       0010000000000630                                                                                                                                                                                                                                                          000225
07250920102230002581013Elenita Luiza França Da Silva  Instituto Endocrinologia E Medic Nucl40301400-Calcio  /                   0010000000000084                                                                                                                                                                                                                                                          000226
07250920102230002581013Elenita Luiza França Da Silva  Instituto Endocrinologia E Medic Nucl40307050-Hepatite delta. anticorpo Ig0010000000001200                                                                                                                                                                                                                                                          000227
07250920102230002581013Elenita Luiza França Da Silva  Instituto Endocrinologia E Medic Nucl40301605-Colesterol total  /         0010000000000084                                                                                                                                                                                                                                                          000228
07290920102230002581013Elenita Luiza França Da Silva  Clínica Radiológica Lucilo Maranhão S1-FILME                              0020000000000834                                                                                                                                                                                                                                                          000229
07290920102230002581013Elenita Luiza França Da Silva  Clínica Radiológica Lucilo Maranhão S40901114-Mamas  /                    0010000000001080                                                                                                                                                                                                                                                          000230
07290920102230002581013Elenita Luiza França Da Silva  Clínica Radiológica Lucilo Maranhão S40901130-Abdome superior (figado. via0010000000001320                                                                                                                                                                                                                                                          000231
07290920102230002581013Elenita Luiza França Da Silva  Clínica Radiológica Lucilo Maranhão S40808041-Mamografia Digital Bilateral0010000000001992                                                                                                                                                                                                                                                          000232
07290920102230002581013Elenita Luiza França Da Silva  Clínica Radiológica Lucilo Maranhão S40808130-Densitometria ossea - 2 segm0010000000002700                                                                                                                                                                                                                                                          000233
07290920102230002581013Elenita Luiza França Da Silva  Clínica Radiológica Lucilo Maranhão S40901300-Transvaginal (inclui abdome 0010000000001200                                                                                                                                                                                                                                                          000234
07250920102230002581129Thiago Magno Emmanuel Da Silva Instituto Endocrinologia E Medic Nucl40301591-Colesterol (LDL)  /         0010000000000240                                                                                                                                                                                                                                                          000235
07250920102230002581129Thiago Magno Emmanuel Da Silva Instituto Endocrinologia E Medic Nucl40301605-Colesterol total  /         0010000000000084                                                                                                                                                                                                                                                          000236
07250920102230002581129Thiago Magno Emmanuel Da Silva Instituto Endocrinologia E Medic Nucl40301583-Colesterol (HDL)  /         0010000000000180                                                                                                                                                                                                                                                          000237
07250920102230002581129Thiago Magno Emmanuel Da Silva Instituto Endocrinologia E Medic Nucl40306445-Aslo  /                     0010000000000120                                                                                                                                                                                                                                                          000238
07250920102230002581129Thiago Magno Emmanuel Da Silva Instituto Endocrinologia E Medic Nucl40310124-Cultura bacteriana (em diver0010000000000300                                                                                                                                                                                                                                                          000239
07280920102230002581129Thiago Magno Emmanuel Da Silva Patricia Cristina Oliveira S Barros  10101012-Em consultorio (no horario n0010000000000840                                                                                                                                                                                                                                                          000240
0900000000258740000                                                                                                                                                                                                                                                                                                                                                                                       000241
04Alexandre Nascimento Dos Santos      2230003137001                       00000000003137                                                                                                                                                                                                                                                                                                                 000242
07100920102230003137010Patricia Marreiro Dos Santos   Fernando Antonio F De Lucena         10101012-Em consultorio (no horario n0010000000000840                                                                                                                                                                                                                                                          000243
07170920102230003137010Patricia Marreiro Dos Santos   Ivaldo Pedrosa Calado Filho          40101010-ECG Convencional de 12 deriv0010000000000360                                                                                                                                                                                                                                                          000244
07170920102230003137010Patricia Marreiro Dos Santos   Ivaldo Pedrosa Calado Filho          10101012-Em consultorio (no horario n0010000000000840                                                                                                                                                                                                                                                          000245
0900000000020400000                                                                                                                                                                                                                                                                                                                                                                                       000246
04Alexandre Ribeiro Pessoa De Mendonca 2230003040008                       00000000003040                                                                                                                                                                                                                                                                                                                 000247
07170920102230003040016Taciana Silva Barbosa De MendonLab Anal Cli Gilson Cidrim S/C Ltda  40316521-Tireoestimulante Hormonio TS0010000000000510                                                                                                                                                                                                                                                          000248
07170920102230003040016Taciana Silva Barbosa De MendonLab Anal Cli Gilson Cidrim S/C Ltda  40301605-Colesterol total  /         0010000000000084                                                                                                                                                                                                                                                          000249
